:100000000C9434000C9449000C9449000C94490061
:100010000C9449000C9449000C9449000C9449003C
:100020000C9449000C9449000C9449000C9449002C
:100030000C9449000C9449000C9449000C9449001C
:100040000C9449000C9449000C9449000C9449000C
:100050000C9449000C9449000C9449000C944900FC
:100060000C9449000C94490011241FBECFEFD8E036
:10007000DEBFCDBF11E0A0E0B1E0E2E2F7E002C0F8
:1000800005900D92AC30B107D9F70E943B010C945A
:100090008F030C940000CF92DF92EF92FF920F93A8
:1000A0001F93CF93DF93CDB7DEB72E970FB6F8949B
:1000B000DEBF0FBECDBF7B018C018AE0E0E0F1E046
:1000C000DE01119601900D928A95E1F78FEF8AB9C2
:1000D00084B18C6F84B985B18C6F85B96B87FC86D0
:1000E0000D871E876B857C858D859E850E943502D8
:1000F0006B877C878D879E878AE0C82ED12C8B8565
:100100009C85B6010E949601E1E0F0E0EC0FFD1F36
:10011000E80FF11D80818BB98BEF85B98FE99FE0E6
:100120000197F1F700C0000020E030E040E251E428
:10013000EB86FC860D871E876B857C858D859E856D
:100140000E94C3016B877C878D879E876B857C852A
:100150008D859E850E9435026B877C878D879E8763
:100160008B859C85B6010E949601E1E0F0E0EC0FE2
:10017000FD1FE80FF11D80818BB987EF85B98FE9ED
:100180009FE00197F1F700C0000020E030E048EC6C
:1001900052E4EB86FC860D871E876B857C858D85FA
:1001A0009E850E94C3016B877C878D879E876B85A8
:1001B0007C858D859E850E9435026B877C878D8727
:1001C0009E878B859C85B6010E949601E1E0F0E058
:1001D000EC0FFD1FE80FF11D80818BB98FEE85B903
:1001E0008FE99FE00197F1F700C0000020E030E0C8
:1001F0004AE754E4EB86FC860D871E876B857C8579
:100200008D859E850E94C3016B877C878D879E8725
:100210006B857C858D859E850E9435026B877C87EA
:100220008D879E878B859C85B6010E949601E1E0B3
:10023000F0E0EC0FFD1FE80FF11D80818BB98FED11
:1002400085B98FE99FE00197F1F700C000002E9675
:100250000FB6F894DEBF0FBECDBFDF91CF911F91D7
:100260000F91FF90EF90DF90CF90089514BC85E040
:1002700085BD16BC089500D000D000D0CDB7DEB744
:1002800082E084B929980E94360116BC299A25E398
:100290002A95F1F700002998189BFECF96B518997A
:1002A000FECF86B5981788F7891B282F30E050E0DD
:1002B00040E029833A834B835C83CA01B9010E94E1
:1002C0006D0224E43BE84CE85FE369837A838B8327
:1002D0009C8369817A818B819C810E9422038B019E
:1002E0008E839D8320E030E048E453E469831A83E1
:1002F0008B839C8369817A818B819C810E94BE0162
:1003000087FFC3CF20E030E040EA50E469817A8182
:100310008B819C810E941D0318160CF0B6CF698159
:100320007A818B819C810E944B00AFCF97FB072E77
:1003300016F4009407D077FD09D00E94AA0107FCAB
:1003400005D03EF4909581959F4F089570956195E5
:100350007F4F0895AA1BBB1B51E107C0AA1FBB1FFB
:10036000A617B70710F0A61BB70B881F991F5A9541
:10037000A9F780959095BC01CD0108950E94A8022F
:1003800008F481E008950E94D7010C94E3020E94D2
:10039000DC0258F00E94D50240F029F45F3F29F0BA
:1003A0000C94CC0251110C9417030C94D2020E94AD
:1003B000F40268F39923B1F3552391F3951B550B80
:1003C000BB27AA2762177307840738F09F5F5F4F28
:1003D000220F331F441FAA1FA9F335D00E2E3AF067
:1003E000E0E832D091505040E695001CCAF72BD07F
:1003F000FE2F29D0660F771F881FBB1F26173707D0
:100400004807AB07B0E809F0BB0B802DBF01FF2701
:1004100093585F4F3AF09E3F510578F00C94CC0210
:100420000C9417035F3FE4F3983ED4F386957795D9
:100430006795B795F7959F5FC9F7880F911D9695BA
:10044000879597F90895E1E0660F771F881FBB1F16
:10045000621773078407BA0720F0621B730B840BC3
:10046000BA0BEE1F88F7E09508950E943C0268944D
:10047000B1110C94170308950E94FC0288F09F5755
:1004800098F0B92F9927B751B0F0E1F0660F771FB8
:10049000881F991F1AF0BA95C9F714C0B13091F0AE
:1004A0000E941603B1E008950C941603672F782F6D
:1004B0008827B85F39F0B93FCCF386957795679573
:1004C000B395D9F73EF490958095709561957F4FDF
:1004D0008F4F9F4F0895E89409C097FB3EF4909585
:1004E0008095709561957F4F8F4F9F4F9923A9F00D
:1004F000F92F96E9BB279395F6958795779567959C
:10050000B795F111F8CFFAF4BB0F11F460FF1BC0DF
:100510006F5F7F4F8F4F9F4F16C0882311F096E972
:1005200011C0772321F09EE8872F762F05C0662320
:1005300071F096E8862F70E060E02AF09A95660FD9
:10054000771F881FDAF7880F9695879597F9089592
:10055000990F0008550FAA0BE0E8FEEF16161706D4
:10056000E807F907C0F012161306E407F50798F03C
:10057000621B730B840B950B39F40A2661F0232B55
:10058000242B252B21F408950A2609F4A140A695D1
:100590008FEF811D811D089597F99F6780E870E0B6
:1005A00060E008959FEF80EC089500240A941616E9
:1005B000170618060906089500240A941216130651
:1005C000140605060895092E0394000C11F48823DF
:1005D00052F0BB0F40F4BF2B11F460FF04C06F5FFB
:1005E0007F4F8F4F9F4F089557FD9058440F551FD1
:1005F00059F05F3F71F04795880F97FB991F61F0A5
:100600009F3F79F087950895121613061406551F1B
:10061000F2CF4695F1DF08C0161617061806991F87
:10062000F1CF86957105610508940895E894BB277C
:1006300066277727CB0197F908950E94A80208F44E
:100640008FEF08950E9435030C94E3020E94D502B7
:1006500038F00E94DC0220F0952311F00C94CC02BB
:100660000C94D20211240C9417030E94F40270F32C
:10067000959FC1F3950F50E0551F629FF001729F47
:10068000BB27F00DB11D639FAA27F00DB11DAA1F56
:10069000649F6627B00DA11D661F829F2227B00DA3
:1006A000A11D621F739FB00DA11D621F839FA00D2E
:1006B000611D221F749F3327A00D611D231F849F7E
:1006C000600D211D822F762F6A2F11249F575040D5
:1006D0009AF0F1F088234AF0EE0FFF1FBB1F661F50
:1006E000771F881F91505040A9F79E3F510580F019
:1006F0000C94CC020C9417035F3FE4F3983ED4F3C0
:10070000869577956795B795F795E7959F5FC1F7BC
:10071000FE2B880F911D9695879597F90895F8946B
:02072000FFCF09
:0C0722003F065B4F666D7D077F6700009F
:00000001FF
